:020000002028B6
:10000800031383120B1C09008801861C0C280F2877
:10001800861F090013280B100810861009000B1002
:0600280008148613090014
:1000400003138316C030810003138316823095009A
:100050008B01C8308B000313831682309600031384
:10006000831670308F000317831600308900031742
:1000700083160030880003138316823086008801BF
:1000800000308500031383128601003088000313BB
:10009000831200308500031383125420542054200F
:1000A0005420013085064B28FF30A100FF30A0000E
:1000B000A00B5828A10B562808000530A300542097
:1000C000A30B5F280800FF30A100FF30A000A00BA9
:0800D0006728A10B6528080058
:04400E00E400FF3F8C
:00000001FF
